{
  "_format": "hh-sol-artifact-1",
  "contractName": "FundFactory",
  "sourceName": "contracts/FundFactory.sol",
  "abi": [
    {
      "inputs": [],
      "stateMutability": "nonpayable",
      "type": "constructor"
    },
    {
      "anonymous": false,
      "inputs": [
        {
          "indexed": true,
          "internalType": "address",
          "name": "fundAddress",
          "type": "address"
        },
        {
          "indexed": true,
          "internalType": "address",
          "name": "creator",
          "type": "address"
        },
        {
          "indexed": false,
          "internalType": "uint256",
          "name": "fundAmount",
          "type": "uint256"
        },
        {
          "indexed": false,
          "internalType": "uint8",
          "name": "slots",
          "type": "uint8"
        },
        {
          "indexed": false,
          "internalType": "uint256",
          "name": "platformFee",
          "type": "uint256"
        }
      ],
      "name": "FundCreated",
      "type": "event"
    },
    {
      "inputs": [
        {
          "internalType": "uint256",
          "name": "",
          "type": "uint256"
        }
      ],
      "name": "allFunds",
      "outputs": [
        {
          "internalType": "address",
          "name": "",
          "type": "address"
        }
      ],
      "stateMutability": "view",
      "type": "function"
    },
    {
      "inputs": [
        {
          "internalType": "string",
          "name": "name",
          "type": "string"
        },
        {
          "internalType": "uint256",
          "name": "fundAmount",
          "type": "uint256"
        },
        {
          "internalType": "uint8",
          "name": "slots",
          "type": "uint8"
        },
        {
          "internalType": "string",
          "name": "description",
          "type": "string"
        }
      ],
      "name": "createFund",
      "outputs": [
        {
          "internalType": "address",
          "name": "",
          "type": "address"
        }
      ],
      "stateMutability": "payable",
      "type": "function"
    },
    {
      "inputs": [
        {
          "internalType": "address payable",
          "name": "fundAddr",
          "type": "address"
        }
      ],
      "name": "deleteFund",
      "outputs": [],
      "stateMutability": "nonpayable",
      "type": "function"
    },
    {
      "inputs": [],
      "name": "factoryOwner",
      "outputs": [
        {
          "internalType": "address",
          "name": "",
          "type": "address"
        }
      ],
      "stateMutability": "view",
      "type": "function"
    },
    {
      "inputs": [],
      "name": "feeBalance",
      "outputs": [
        {
          "internalType": "uint256",
          "name": "",
          "type": "uint256"
        }
      ],
      "stateMutability": "view",
      "type": "function"
    },
    {
      "inputs": [],
      "name": "getAllFunds",
      "outputs": [
        {
          "internalType": "address[]",
          "name": "",
          "type": "address[]"
        }
      ],
      "stateMutability": "view",
      "type": "function"
    },
    {
      "inputs": [
        {
          "internalType": "address",
          "name": "",
          "type": "address"
        }
      ],
      "name": "isDeleted",
      "outputs": [
        {
          "internalType": "bool",
          "name": "",
          "type": "bool"
        }
      ],
      "stateMutability": "view",
      "type": "function"
    },
    {
      "inputs": [
        {
          "internalType": "address payable",
          "name": "to",
          "type": "address"
        }
      ],
      "name": "withdrawFees",
      "outputs": [],
      "stateMutability": "nonpayable",
      "type": "function"
    }
  ],
  "bytecode": "0x60a060405234801561001057600080fd5b503373ffffffffffffffffffffffffffffffffffffffff1660808173ffffffffffffffffffffffffffffffffffffffff168152505060805161436461006760003960008181610257015261067b01526143646000f3fe608060405260043610620000865760003560e01c8063446845c31162000055578063446845c3146200015d57806360b71d4e146200018b578063e7a2843114620001bb578063ed7d5c0a14620001ff5762000086565b8063142227df146200008b578063164e68de14620000cf5780631c69b46414620000fd5780634273601c146200012d575b600080fd5b3480156200009857600080fd5b50620000b76004803603810190620000b1919062000c58565b62000235565b604051620000c6919062000ca7565b60405180910390f35b348015620000dc57600080fd5b50620000fb6004803603810190620000f5919062000d09565b62000255565b005b3480156200010a57600080fd5b5062000115620003f1565b60405162000124919062000e09565b60405180910390f35b3480156200013a57600080fd5b506200014562000679565b60405162000154919062000e3e565b60405180910390f35b3480156200016a57600080fd5b5062000189600480360381019062000183919062000d09565b6200069d565b005b3480156200019857600080fd5b50620001a362000924565b604051620001b2919062000e76565b60405180910390f35b348015620001c857600080fd5b50620001e76004803603810190620001e1919062000ec4565b6200092a565b604051620001f6919062000e3e565b60405180910390f35b6200021d600480360381019062000217919062001096565b6200096a565b6040516200022c919062000e3e565b60405180910390f35b60026020528060005260406000206000915054906101000a900460ff1681565b7f000000000000000000000000000000000000000000000000000000000000000073ffffffffffffffffffffffffffffffffffffffff163373ffffffffffffffffffffffffffffffffffffffff1614620002e6576040517f08c379a0000000000000000000000000000000000000000000000000000000008152600401620002dd90620011a7565b60405180910390fd5b6000805490506000811162000332576040517f08c379a0000000000000000000000000000000000000000000000000000000008152600401620003299062001219565b60405180910390fd5b6000808190555060008273ffffffffffffffffffffffffffffffffffffffff1682604051620003619062001270565b60006040518083038185875af1925050503d8060008114620003a0576040519150601f19603f3d011682016040523d82523d6000602084013e620003a5565b606091505b5050905080620003ec576040517f08c379a0000000000000000000000000000000000000000000000000000000008152600401620003e390620012d7565b60405180910390fd5b505050565b60606000805b600180549050811015620004bf57600260006001838154811062000420576200041f620012f9565b5b9060005260206000200160009054906101000a900473ffffffffffffffffffffffffffffffffffffffff1673ffffffffffffffffffffffffffffffffffffffff1673ffffffffffffffffffffffffffffffffffffffff16815260200190815260200160002060009054906101000a900460ff16620004a9578180620004a59062001357565b9250505b8080620004b69062001357565b915050620003f7565b5060008167ffffffffffffffff811115620004df57620004de62000f11565b5b6040519080825280602002602001820160405280156200050e5781602001602082028036833780820191505090505b5090506000805b6001805490508110156200066f5760026000600183815481106200053e576200053d620012f9565b5b9060005260206000200160009054906101000a900473ffffffffffffffffffffffffffffffffffffffff1673ffffffffffffffffffffffffffffffffffffffff1673ffffffffffffffffffffffffffffffffffffffff16815260200190815260200160002060009054906101000a900460ff16620006595760018181548110620005cd57620005cc620012f9565b5b9060005260206000200160009054906101000a900473ffffffffffffffffffffffffffffffffffffffff168383815181106200060e576200060d620012f9565b5b602002602001019073ffffffffffffffffffffffffffffffffffffffff16908173ffffffffffffffffffffffffffffffffffffffff16815250508180620006559062001357565b9250505b8080620006669062001357565b91505062000515565b5081935050505090565b7f000000000000000000000000000000000000000000000000000000000000000081565b600260008273ffffffffffffffffffffffffffffffffffffffff1673ffffffffffffffffffffffffffffffffffffffff16815260200190815260200160002060009054906101000a900460ff16156200072d576040517f08c379a00000000000000000000000000000000000000000000000000000000081526004016200072490620013f4565b60405180910390fd5b60008190508073ffffffffffffffffffffffffffffffffffffffff16638da5cb5b6040518163ffffffff1660e01b8152600401602060405180830381865afa1580156200077e573d6000803e3d6000fd5b505050506040513d601f19601f82011682018060405250810190620007a491906200142d565b73ffffffffffffffffffffffffffffffffffffffff163373ffffffffffffffffffffffffffffffffffffffff161462000814576040517f08c379a00000000000000000000000000000000000000000000000000000000081526004016200080b90620014af565b60405180910390fd5b8073ffffffffffffffffffffffffffffffffffffffff1663e9483ac06040518163ffffffff1660e01b8152600401602060405180830381865afa15801562000860573d6000803e3d6000fd5b505050506040513d601f19601f8201168201806040525081019062000886919062001502565b620008c8576040517f08c379a0000000000000000000000000000000000000000000000000000000008152600401620008bf9062001584565b60405180910390fd5b6001600260008473ffffffffffffffffffffffffffffffffffffffff1673ffffffffffffffffffffffffffffffffffffffff16815260200190815260200160002060006101000a81548160ff0219169083151502179055505050565b60005481565b600181815481106200093b57600080fd5b906000526020600020016000915054906101000a900473ffffffffffffffffffffffffffffffffffffffff1681565b600060018360ff161015801562000985575060058360ff1611155b620009c7576040517f08c379a0000000000000000000000000000000000000000000000000000000008152600401620009be90620015f6565b60405180910390fd5b683635c9adc5dea0000084101562000a16576040517f08c379a000000000000000000000000000000000000000000000000000000000815260040162000a0d9062001668565b60405180910390fd5b6000606460058662000a2991906200168a565b62000a35919062001704565b90506000818662000a4791906200173c565b905080341462000a8e576040517f08c379a000000000000000000000000000000000000000000000000000000000815260040162000a8590620017c7565b60405180910390fd5b600086338989898960405162000aa49062000bd1565b62000ab495949392919062001872565b6040518091039082f090508015801562000ad2573d6000803e3d6000fd5b50905060008190506001819080600181540180825580915050600190039060005260206000200160009091909190916101000a81548173ffffffffffffffffffffffffffffffffffffffff021916908373ffffffffffffffffffffffffffffffffffffffff1602179055508360008082825462000b5091906200173c565b925050819055503373ffffffffffffffffffffffffffffffffffffffff168173ffffffffffffffffffffffffffffffffffffffff167fc11752e540c2e10c7e9d10ce796142594712bb8c8146ae4b547f9bcf361e8ed68a8a8860405162000bba93929190620018dd565b60405180910390a380945050505050949350505050565b612a14806200191b83390190565b6000604051905090565b600080fd5b600080fd5b600073ffffffffffffffffffffffffffffffffffffffff82169050919050565b600062000c208262000bf3565b9050919050565b62000c328162000c13565b811462000c3e57600080fd5b50565b60008135905062000c528162000c27565b92915050565b60006020828403121562000c715762000c7062000be9565b5b600062000c818482850162000c41565b91505092915050565b60008115159050919050565b62000ca18162000c8a565b82525050565b600060208201905062000cbe600083018462000c96565b92915050565b600062000cd18262000bf3565b9050919050565b62000ce38162000cc4565b811462000cef57600080fd5b50565b60008135905062000d038162000cd8565b92915050565b60006020828403121562000d225762000d2162000be9565b5b600062000d328482850162000cf2565b91505092915050565b600081519050919050565b600082825260208201905092915050565b6000819050602082019050919050565b62000d728162000c13565b82525050565b600062000d86838362000d67565b60208301905092915050565b6000602082019050919050565b600062000dac8262000d3b565b62000db8818562000d46565b935062000dc58362000d57565b8060005b8381101562000dfc57815162000de0888262000d78565b975062000ded8362000d92565b92505060018101905062000dc9565b5085935050505092915050565b6000602082019050818103600083015262000e25818462000d9f565b905092915050565b62000e388162000c13565b82525050565b600060208201905062000e55600083018462000e2d565b92915050565b6000819050919050565b62000e708162000e5b565b82525050565b600060208201905062000e8d600083018462000e65565b92915050565b62000e9e8162000e5b565b811462000eaa57600080fd5b50565b60008135905062000ebe8162000e93565b92915050565b60006020828403121562000edd5762000edc62000be9565b5b600062000eed8482850162000ead565b91505092915050565b600080fd5b600080fd5b6000601f19601f8301169050919050565b7f4e487b7100000000000000000000000000000000000000000000000000000000600052604160045260246000fd5b62000f4b8262000f00565b810181811067ffffffffffffffff8211171562000f6d5762000f6c62000f11565b5b80604052505050565b600062000f8262000bdf565b905062000f90828262000f40565b919050565b600067ffffffffffffffff82111562000fb35762000fb262000f11565b5b62000fbe8262000f00565b9050602081019050919050565b82818337600083830152505050565b600062000ff162000feb8462000f95565b62000f76565b90508281526020810184848401111562001010576200100f62000efb565b5b6200101d84828562000fcb565b509392505050565b600082601f8301126200103d576200103c62000ef6565b5b81356200104f84826020860162000fda565b91505092915050565b600060ff82169050919050565b620010708162001058565b81146200107c57600080fd5b50565b600081359050620010908162001065565b92915050565b60008060008060808587031215620010b357620010b262000be9565b5b600085013567ffffffffffffffff811115620010d457620010d362000bee565b5b620010e28782880162001025565b9450506020620010f58782880162000ead565b935050604062001108878288016200107f565b925050606085013567ffffffffffffffff8111156200112c576200112b62000bee565b5b6200113a8782880162001025565b91505092959194509250565b600082825260208201905092915050565b7f4e6f7420666163746f7279206f776e6572000000000000000000000000000000600082015250565b60006200118f60118362001146565b91506200119c8262001157565b602082019050919050565b60006020820190508181036000830152620011c28162001180565b9050919050565b7f4e6f206665657300000000000000000000000000000000000000000000000000600082015250565b60006200120160078362001146565b91506200120e82620011c9565b602082019050919050565b600060208201905081810360008301526200123481620011f2565b9050919050565b600081905092915050565b50565b6000620012586000836200123b565b9150620012658262001246565b600082019050919050565b60006200127d8262001249565b9150819050919050565b7f466565207472616e73666572206661696c656400000000000000000000000000600082015250565b6000620012bf60138362001146565b9150620012cc8262001287565b602082019050919050565b60006020820190508181036000830152620012f281620012b0565b9050919050565b7f4e487b7100000000000000000000000000000000000000000000000000000000600052603260045260246000fd5b7f4e487b7100000000000000000000000000000000000000000000000000000000600052601160045260246000fd5b6000620013648262000e5b565b91507fffffffffffffffffffffffffffffffffffffffffffffffffffffffffffffffff820362001399576200139862001328565b5b600182019050919050565b7f416c72656164792064656c657465640000000000000000000000000000000000600082015250565b6000620013dc600f8362001146565b9150620013e982620013a4565b602082019050919050565b600060208201905081810360008301526200140f81620013cd565b9050919050565b600081519050620014278162000c27565b92915050565b60006020828403121562001446576200144562000be9565b5b6000620014568482850162001416565b91505092915050565b7f4e6f742066756e64206f776e6572000000000000000000000000000000000000600082015250565b600062001497600e8362001146565b9150620014a4826200145f565b602082019050919050565b60006020820190508181036000830152620014ca8162001488565b9050919050565b620014dc8162000c8a565b8114620014e857600080fd5b50565b600081519050620014fc81620014d1565b92915050565b6000602082840312156200151b576200151a62000be9565b5b60006200152b84828501620014eb565b91505092915050565b7f526577617264206e6f7420646973747269627574656420796574000000000000600082015250565b60006200156c601a8362001146565b9150620015798262001534565b602082019050919050565b600060208201905081810360008301526200159f816200155d565b9050919050565b7f536c6f7473206d75737420626520312e2e350000000000000000000000000000600082015250565b6000620015de60128362001146565b9150620015eb82620015a6565b602082019050919050565b600060208201905081810360008301526200161181620015cf565b9050919050565b7f4d696e2066756e64206973203130303020455448000000000000000000000000600082015250565b60006200165060148362001146565b91506200165d8262001618565b602082019050919050565b60006020820190508181036000830152620016838162001641565b9050919050565b6000620016978262000e5b565b9150620016a48362000e5b565b9250828202620016b48162000e5b565b91508282048414831517620016ce57620016cd62001328565b5b5092915050565b7f4e487b7100000000000000000000000000000000000000000000000000000000600052601260045260246000fd5b6000620017118262000e5b565b91506200171e8362000e5b565b925082620017315762001730620016d5565b5b828204905092915050565b6000620017498262000e5b565b9150620017568362000e5b565b925082820190508082111562001771576200177062001328565b5b92915050565b7f496e636f7272656374204554482073656e740000000000000000000000000000600082015250565b6000620017af60128362001146565b9150620017bc8262001777565b602082019050919050565b60006020820190508181036000830152620017e281620017a0565b9050919050565b600081519050919050565b60005b8381101562001814578082015181840152602081019050620017f7565b60008484015250505050565b60006200182d82620017e9565b62001839818562001146565b93506200184b818560208601620017f4565b620018568162000f00565b840191505092915050565b6200186c8162001058565b82525050565b600060a08201905062001889600083018862000e2d565b81810360208301526200189d818762001820565b9050620018ae604083018662000e65565b620018bd606083018562001861565b8181036080830152620018d1818462001820565b90509695505050505050565b6000606082019050620018f4600083018662000e65565b62001903602083018562001861565b62001912604083018462000e65565b94935050505056fe60a060405260405162002a1438038062002a1483398181016040528101906200002991906200040e565b60018260ff161015801562000042575060058260ff1611155b62000084576040517f08c379a00000000000000000000000000000000000000000000000000000000081526004016200007b9062000535565b60405180910390fd5b683635c9adc5dea00000831015620000d3576040517f08c379a0000000000000000000000000000000000000000000000000000000008152600401620000ca90620005a7565b60405180910390fd5b82341462000118576040517f08c379a00000000000000000000000000000000000000000000000000000000081526004016200010f9062000619565b60405180910390fd5b8473ffffffffffffffffffffffffffffffffffffffff1660808173ffffffffffffffffffffffffffffffffffffffff168152505083600090816200015d91906200087c565b508260028190555081600360006101000a81548160ff021916908360ff16021790555080600190816200019191906200087c565b50505050505062000963565b6000604051905090565b600080fd5b600080fd5b600073ffffffffffffffffffffffffffffffffffffffff82169050919050565b6000620001de82620001b1565b9050919050565b620001f081620001d1565b8114620001fc57600080fd5b50565b6000815190506200021081620001e5565b92915050565b600080fd5b600080fd5b6000601f19601f8301169050919050565b7f4e487b7100000000000000000000000000000000000000000000000000000000600052604160045260246000fd5b6200026b8262000220565b810181811067ffffffffffffffff821117156200028d576200028c62000231565b5b80604052505050565b6000620002a26200019d565b9050620002b0828262000260565b919050565b600067ffffffffffffffff821115620002d357620002d262000231565b5b620002de8262000220565b9050602081019050919050565b60005b838110156200030b578082015181840152602081019050620002ee565b60008484015250505050565b60006200032e6200032884620002b5565b62000296565b9050828152602081018484840111156200034d576200034c6200021b565b5b6200035a848285620002eb565b509392505050565b600082601f8301126200037a576200037962000216565b5b81516200038c84826020860162000317565b91505092915050565b6000819050919050565b620003aa8162000395565b8114620003b657600080fd5b50565b600081519050620003ca816200039f565b92915050565b600060ff82169050919050565b620003e881620003d0565b8114620003f457600080fd5b50565b6000815190506200040881620003dd565b92915050565b600080600080600060a086880312156200042d576200042c620001a7565b5b60006200043d88828901620001ff565b955050602086015167ffffffffffffffff811115620004615762000460620001ac565b5b6200046f8882890162000362565b94505060406200048288828901620003b9565b93505060606200049588828901620003f7565b925050608086015167ffffffffffffffff811115620004b957620004b8620001ac565b5b620004c78882890162000362565b9150509295509295909350565b600082825260208201905092915050565b7f536c6f7473206d75737420626520312e2e350000000000000000000000000000600082015250565b60006200051d601283620004d4565b91506200052a82620004e5565b602082019050919050565b6000602082019050818103600083015262000550816200050e565b9050919050565b7f4d696e2066756e64206973203130303020455448000000000000000000000000600082015250565b60006200058f601483620004d4565b91506200059c8262000557565b602082019050919050565b60006020820190508181036000830152620005c28162000580565b9050919050565b7f46756e642076616c7565206d69736d6174636800000000000000000000000000600082015250565b600062000601601383620004d4565b91506200060e82620005c9565b602082019050919050565b600060208201905081810360008301526200063481620005f2565b9050919050565b600081519050919050565b7f4e487b7100000000000000000000000000000000000000000000000000000000600052602260045260246000fd5b600060028204905060018216806200068e57607f821691505b602082108103620006a457620006a362000646565b5b50919050565b60008190508160005260206000209050919050565b60006020601f8301049050919050565b600082821b905092915050565b6000600883026200070e7fffffffffffffffffffffffffffffffffffffffffffffffffffffffffffffffff82620006cf565b6200071a8683620006cf565b95508019841693508086168417925050509392505050565b6000819050919050565b60006200075d62000757620007518462000395565b62000732565b62000395565b9050919050565b6000819050919050565b62000779836200073c565b62000791620007888262000764565b848454620006dc565b825550505050565b600090565b620007a862000799565b620007b58184846200076e565b505050565b5b81811015620007dd57620007d16000826200079e565b600181019050620007bb565b5050565b601f8211156200082c57620007f681620006aa565b6200080184620006bf565b8101602085101562000811578190505b620008296200082085620006bf565b830182620007ba565b50505b505050565b600082821c905092915050565b6000620008516000198460080262000831565b1980831691505092915050565b60006200086c83836200083e565b9150826002028217905092915050565b62000887826200063b565b67ffffffffffffffff811115620008a357620008a262000231565b5b620008af825462000675565b620008bc828285620007e1565b600060209050601f831160018114620008f45760008415620008df578287015190505b620008eb85826200085e565b8655506200095b565b601f1984166200090486620006aa565b60005b828110156200092e5784890151825560018201915060208501945060208101905062000907565b868310156200094e57848901516200094a601f8916826200083e565b8355505b6001600288020188555050505b505050505050565b60805161208e6200098660003960008181610a4a0152610a6e015261208e6000f3fe6080604052600436106100e15760003560e01c80635f39b6b21161007f5780638f73c5ae116100595780638f73c5ae146102d3578063c14164d8146102ea578063dfefadff14610327578063e9483ac01461036957610100565b80635f39b6b2146102545780637284e4161461027d5780638da5cb5b146102a857610100565b8063100aca47116100bb578063100aca4714610196578063388044b3146101c157806348547d69146101fe57806358a6f4ca1461022957610100565b80630121b93f1461010557806306dcde061461012e57806306fdde031461016b57610100565b366101005734600260008282546100f891906112e2565b925050819055005b600080fd5b34801561011157600080fd5b5061012c60048036038101906101279190611356565b610394565b005b34801561013a57600080fd5b50610155600480360381019061015091906113e1565b61067b565b604051610162919061143c565b60405180910390f35b34801561017757600080fd5b506101806106aa565b60405161018d91906114e7565b60405180910390f35b3480156101a257600080fd5b506101ab610738565b6040516101b89190611518565b60405180910390f35b3480156101cd57600080fd5b506101e860048036038101906101e39190611533565b61073e565b6040516101f5919061143c565b60405180910390f35b34801561020a57600080fd5b5061021361075e565b604051610220919061157c565b60405180910390f35b34801561023557600080fd5b5061023e610771565b60405161024b9190611518565b60405180910390f35b34801561026057600080fd5b5061027b600480360381019061027691906116cc565b61077e565b005b34801561028957600080fd5b506102926109ba565b60405161029f91906114e7565b60405180910390f35b3480156102b457600080fd5b506102bd610a48565b6040516102ca9190611766565b60405180910390f35b3480156102df57600080fd5b506102e8610a6c565b005b3480156102f657600080fd5b50610311600480360381019061030c9190611533565b610f88565b60405161031e919061157c565b60405180910390f35b34801561033357600080fd5b5061034e60048036038101906103499190611356565b610fa8565b60405161036096959493929190611781565b60405180910390f35b34801561037557600080fd5b5061037e611124565b60405161038b919061143c565b60405180910390f35b60048054905081106103db576040517f08c379a00000000000000000000000000000000000000000000000000000000081526004016103d29061183c565b60405180910390fd5b600760003373ffffffffffffffffffffffffffffffffffffffff1673ffffffffffffffffffffffffffffffffffffffff168152602001908152602001600020600082815260200190815260200160002060009054906101000a900460ff1615610479576040517f08c379a0000000000000000000000000000000000000000000000000000000008152600401610470906118a8565b60405180910390fd5b6003600660003373ffffffffffffffffffffffffffffffffffffffff1673ffffffffffffffffffffffffffffffffffffffff16815260200190815260200160002060009054906101000a900460ff1660ff161061050b576040517f08c379a000000000000000000000000000000000000000000000000000000000815260040161050290611914565b60405180910390fd5b6001600760003373ffffffffffffffffffffffffffffffffffffffff1673ffffffffffffffffffffffffffffffffffffffff168152602001908152602001600020600083815260200190815260200160002060006101000a81548160ff0219169083151502179055506001600660003373ffffffffffffffffffffffffffffffffffffffff1673ffffffffffffffffffffffffffffffffffffffff16815260200190815260200160002060008282829054906101000a900460ff166105d09190611934565b92506101000a81548160ff021916908360ff1602179055506000600482815481106105fe576105fd611969565b5b90600052602060002090600602019050600181600401600082825461062391906112e2565b92505081905550428160050181905550813373ffffffffffffffffffffffffffffffffffffffff167f4d99b957a2bc29a30ebd96a7be8e68fe50a3c701db28a91436490b7d53870ca460405160405180910390a35050565b60076020528160005260406000206020528060005260406000206000915091509054906101000a900460ff1681565b600080546106b7906119c7565b80601f01602080910402602001604051908101604052809291908181526020018280546106e3906119c7565b80156107305780601f1061070557610100808354040283529160200191610730565b820191906000526020600020905b81548152906001019060200180831161071357829003601f168201915b505050505081565b60025481565b60056020528060005260406000206000915054906101000a900460ff1681565b600360009054906101000a900460ff1681565b6000600480549050905090565b600560003373ffffffffffffffffffffffffffffffffffffffff1673ffffffffffffffffffffffffffffffffffffffff16815260200190815260200160002060009054906101000a900460ff161561080b576040517f08c379a000000000000000000000000000000000000000000000000000000000815260040161080290611a44565b60405180910390fd5b6000600480549050905060046040518060c001604052808681526020018581526020018481526020013373ffffffffffffffffffffffffffffffffffffffff1681526020016000815260200160008152509080600181540180825580915050600190039060005260206000209060060201600090919091909150600082015181600001908161089a9190611c10565b506020820151816001015560408201518160020190816108ba9190611c10565b5060608201518160030160006101000a81548173ffffffffffffffffffffffffffffffffffffffff021916908373ffffffffffffffffffffffffffffffffffffffff1602179055506080820151816004015560a0820151816005015550506001600560003373ffffffffffffffffffffffffffffffffffffffff1673ffffffffffffffffffffffffffffffffffffffff16815260200190815260200160002060006101000a81548160ff0219169083151502179055503373ffffffffffffffffffffffffffffffffffffffff16817f394b2f46e841d2b670718e98a15dfb76853abc5a8761449c74e9cba62d90152160405160405180910390a350505050565b600180546109c7906119c7565b80601f01602080910402602001604051908101604052809291908181526020018280546109f3906119c7565b8015610a405780601f10610a1557610100808354040283529160200191610a40565b820191906000526020600020905b815481529060010190602001808311610a2357829003601f168201915b505050505081565b7f000000000000000000000000000000000000000000000000000000000000000081565b7f000000000000000000000000000000000000000000000000000000000000000073ffffffffffffffffffffffffffffffffffffffff163373ffffffffffffffffffffffffffffffffffffffff1614610afa576040517f08c379a0000000000000000000000000000000000000000000000000000000008152600401610af190611d2e565b60405180910390fd5b600360019054906101000a900460ff1615610b4a576040517f08c379a0000000000000000000000000000000000000000000000000000000008152600401610b4190611d9a565b60405180910390fd5b6000600480549050905060008111610b97576040517f08c379a0000000000000000000000000000000000000000000000000000000008152600401610b8e90611e06565b60405180910390fd5b600047905060008111610bdf576040517f08c379a0000000000000000000000000000000000000000000000000000000008152600401610bd690611e72565b60405180910390fd5b6000600360009054906101000a900460ff1660ff16905080831015610c02578290505b60008367ffffffffffffffff811115610c1e57610c1d6115a1565b5b604051908082528060200260200182016040528015610c4c5781602001602082028036833780820191505090505b50905060008267ffffffffffffffff811115610c6b57610c6a6115a1565b5b604051908082528060200260200182016040528015610c995781602001602082028036833780820191505090505b50905060005b83811015610da95760007fffffffffffffffffffffffffffffffffffffffffffffffffffffffffffffffff905060005b87811015610d4d57848181518110610cea57610ce9611969565b5b6020026020010151610d3a577fffffffffffffffffffffffffffffffffffffffffffffffffffffffffffffffff8203610d2557809150610d3a565b610d30818387611137565b15610d39578091505b5b8080610d4590611e92565b915050610ccf565b506001848281518110610d6357610d62611969565b5b60200260200101901515908115158152505080838381518110610d8957610d88611969565b5b602002602001018181525050508080610da190611e92565b915050610c9f565b5060008385610db89190611f09565b905060008111610dfd576040517f08c379a0000000000000000000000000000000000000000000000000000000008152600401610df490611f86565b60405180910390fd5b6001600360016101000a81548160ff02191690831515021790555060005b84811015610f485760006004848381518110610e3a57610e39611969565b5b602002602001015181548110610e5357610e52611969565b5b906000526020600020906006020160030160009054906101000a900473ffffffffffffffffffffffffffffffffffffffff16905060008173ffffffffffffffffffffffffffffffffffffffff1684604051610ead90611fd7565b60006040518083038185875af1925050503d8060008114610eea576040519150601f19603f3d011682016040523d82523d6000602084013e610eef565b606091505b5050905080610f33576040517f08c379a0000000000000000000000000000000000000000000000000000000008152600401610f2a90612038565b60405180910390fd5b50508080610f4090611e92565b915050610e1b565b507f04944120d2e185fc95ba63f3ca24c385ec4c5215a801c8766c96486d7fc4ed8e84604051610f789190611518565b60405180910390a1505050505050565b60066020528060005260406000206000915054906101000a900460ff1681565b60048181548110610fb857600080fd5b9060005260206000209060060201600091509050806000018054610fdb906119c7565b80601f0160208091040260200160405190810160405280929190818152602001828054611007906119c7565b80156110545780601f1061102957610100808354040283529160200191611054565b820191906000526020600020905b81548152906001019060200180831161103757829003601f168201915b50505050509080600101549080600201805461106f906119c7565b80601f016020809104026020016040519081016040528092919081815260200182805461109b906119c7565b80156110e85780601f106110bd576101008083540402835291602001916110e8565b820191906000526020600020905b8154815290600101906020018083116110cb57829003601f168201915b5050505050908060030160009054906101000a900473ffffffffffffffffffffffffffffffffffffffff16908060040154908060050154905086565b600360019054906101000a900460ff1681565b600081848151811061114c5761114b611969565b5b60200260200101511561116257600090506112a2565b81838151811061117557611174611969565b5b60200260200101511561118b57600190506112a2565b6000600485815481106111a1576111a0611969565b5b906000526020600020906006020190506000600485815481106111c7576111c6611969565b5b906000526020600020906006020190508060040154826004015411156111f2576001925050506112a2565b80600401548260040154101561120d576000925050506112a2565b60008260050154148015611225575060008160050154145b1561123657848610925050506112a2565b600082600501540361124d576000925050506112a2565b6000816005015403611264576001925050506112a2565b80600501548260050154101561127f576001925050506112a2565b80600501548260050154111561129a576000925050506112a2565b848610925050505b9392505050565b6000819050919050565b7f4e487b7100000000000000000000000000000000000000000000000000000000600052601160045260246000fd5b60006112ed826112a9565b91506112f8836112a9565b92508282019050808211156113105761130f6112b3565b5b92915050565b6000604051905090565b600080fd5b600080fd5b611333816112a9565b811461133e57600080fd5b50565b6000813590506113508161132a565b92915050565b60006020828403121561136c5761136b611320565b5b600061137a84828501611341565b91505092915050565b600073ffffffffffffffffffffffffffffffffffffffff82169050919050565b60006113ae82611383565b9050919050565b6113be816113a3565b81146113c957600080fd5b50565b6000813590506113db816113b5565b92915050565b600080604083850312156113f8576113f7611320565b5b6000611406858286016113cc565b925050602061141785828601611341565b9150509250929050565b60008115159050919050565b61143681611421565b82525050565b6000602082019050611451600083018461142d565b92915050565b600081519050919050565b600082825260208201905092915050565b60005b83811015611491578082015181840152602081019050611476565b60008484015250505050565b6000601f19601f8301169050919050565b60006114b982611457565b6114c38185611462565b93506114d3818560208601611473565b6114dc8161149d565b840191505092915050565b6000602082019050818103600083015261150181846114ae565b905092915050565b611512816112a9565b82525050565b600060208201905061152d6000830184611509565b92915050565b60006020828403121561154957611548611320565b5b6000611557848285016113cc565b91505092915050565b600060ff82169050919050565b61157681611560565b82525050565b6000602082019050611591600083018461156d565b92915050565b600080fd5b600080fd5b7f4e487b7100000000000000000000000000000000000000000000000000000000600052604160045260246000fd5b6115d98261149d565b810181811067ffffffffffffffff821117156115f8576115f76115a1565b5b80604052505050565b600061160b611316565b905061161782826115d0565b919050565b600067ffffffffffffffff821115611637576116366115a1565b5b6116408261149d565b9050602081019050919050565b82818337600083830152505050565b600061166f61166a8461161c565b611601565b90508281526020810184848401111561168b5761168a61159c565b5b61169684828561164d565b509392505050565b600082601f8301126116b3576116b2611597565b5b81356116c384826020860161165c565b91505092915050565b6000806000606084860312156116e5576116e4611320565b5b600084013567ffffffffffffffff81111561170357611702611325565b5b61170f8682870161169e565b935050602061172086828701611341565b925050604084013567ffffffffffffffff81111561174157611740611325565b5b61174d8682870161169e565b9150509250925092565b611760816113a3565b82525050565b600060208201905061177b6000830184611757565b92915050565b600060c082019050818103600083015261179b81896114ae565b90506117aa6020830188611509565b81810360408301526117bc81876114ae565b90506117cb6060830186611757565b6117d86080830185611509565b6117e560a0830184611509565b979650505050505050565b7f496e76616c6964206170706c6963616e74000000000000000000000000000000600082015250565b6000611826601183611462565b9150611831826117f0565b602082019050919050565b6000602082019050818103600083015261185581611819565b9050919050565b7f416c726561647920766f7465642074686973206170706c6963616e7400000000600082015250565b6000611892601c83611462565b915061189d8261185c565b602082019050919050565b600060208201905081810360008301526118c181611885565b9050919050565b7f4e6f20766f746573206c65667400000000000000000000000000000000000000600082015250565b60006118fe600d83611462565b9150611909826118c8565b602082019050919050565b6000602082019050818103600083015261192d816118f1565b9050919050565b600061193f82611560565b915061194a83611560565b9250828201905060ff811115611963576119626112b3565b5b92915050565b7f4e487b7100000000000000000000000000000000000000000000000000000000600052603260045260246000fd5b7f4e487b7100000000000000000000000000000000000000000000000000000000600052602260045260246000fd5b600060028204905060018216806119df57607f821691505b6020821081036119f2576119f1611998565b5b50919050565b7f416c7265616479207375626d6974746564000000000000000000000000000000600082015250565b6000611a2e601183611462565b9150611a39826119f8565b602082019050919050565b60006020820190508181036000830152611a5d81611a21565b9050919050565b60008190508160005260206000209050919050565b60006020601f8301049050919050565b600082821b905092915050565b600060088302611ac67fffffffffffffffffffffffffffffffffffffffffffffffffffffffffffffffff82611a89565b611ad08683611a89565b95508019841693508086168417925050509392505050565b6000819050919050565b6000611b0d611b08611b03846112a9565b611ae8565b6112a9565b9050919050565b6000819050919050565b611b2783611af2565b611b3b611b3382611b14565b848454611a96565b825550505050565b600090565b611b50611b43565b611b5b818484611b1e565b505050565b5b81811015611b7f57611b74600082611b48565b600181019050611b61565b5050565b601f821115611bc457611b9581611a64565b611b9e84611a79565b81016020851015611bad578190505b611bc1611bb985611a79565b830182611b60565b50505b505050565b600082821c905092915050565b6000611be760001984600802611bc9565b1980831691505092915050565b6000611c008383611bd6565b9150826002028217905092915050565b611c1982611457565b67ffffffffffffffff811115611c3257611c316115a1565b5b611c3c82546119c7565b611c47828285611b83565b600060209050601f831160018114611c7a5760008415611c68578287015190505b611c728582611bf4565b865550611cda565b601f198416611c8886611a64565b60005b82811015611cb057848901518255600182019150602085019450602081019050611c8b565b86831015611ccd5784890151611cc9601f891682611bd6565b8355505b6001600288020188555050505b505050505050565b7f4e6f742066756e64206f776e6572000000000000000000000000000000000000600082015250565b6000611d18600e83611462565b9150611d2382611ce2565b602082019050919050565b60006020820190508181036000830152611d4781611d0b565b9050919050565b7f416c726561647920646973747269627574656400000000000000000000000000600082015250565b6000611d84601383611462565b9150611d8f82611d4e565b602082019050919050565b60006020820190508181036000830152611db381611d77565b9050919050565b7f4e6f206170706c6963616e747300000000000000000000000000000000000000600082015250565b6000611df0600d83611462565b9150611dfb82611dba565b602082019050919050565b60006020820190508181036000830152611e1f81611de3565b9050919050565b7f4e6f2066756e6473000000000000000000000000000000000000000000000000600082015250565b6000611e5c600883611462565b9150611e6782611e26565b602082019050919050565b60006020820190508181036000830152611e8b81611e4f565b9050919050565b6000611e9d826112a9565b91507fffffffffffffffffffffffffffffffffffffffffffffffffffffffffffffffff8203611ecf57611ece6112b3565b5b600182019050919050565b7f4e487b7100000000000000000000000000000000000000000000000000000000600052601260045260246000fd5b6000611f14826112a9565b9150611f1f836112a9565b925082611f2f57611f2e611eda565b5b828204905092915050565b7f546f6f206c6974746c6520746f20646973747269627574650000000000000000600082015250565b6000611f70601883611462565b9150611f7b82611f3a565b602082019050919050565b60006020820190508181036000830152611f9f81611f63565b9050919050565b600081905092915050565b50565b6000611fc1600083611fa6565b9150611fcc82611fb1565b600082019050919050565b6000611fe282611fb4565b9150819050919050565b7f5472616e73666572206661696c65640000000000000000000000000000000000600082015250565b6000612022600f83611462565b915061202d82611fec565b602082019050919050565b6000602082019050818103600083015261205181612015565b905091905056fea264697066735822122010b58f351a7f0abdd1c2ce830ec6fb3539fb567994981498f5c0cdcebce4491264736f6c63430008140033a2646970667358221220d58ace581cfd47bf2d6cdbebcab2104b06a177b749e3ac33c8b422030c154eb464736f6c63430008140033",
  "linkReferences": {},
  "deployedLinkReferences": {}
}